:020000040000fa
:080000000002040000000000f2
:020000040000fa
:04000800cc03000025
:020000040000fa
:04000c00cc03000021
:020000040000fa
:04001000cc0300001d
:020000040000fa
:04001400cc03000019
:020000040000fa
:04001800cc03000015
:020000040000fa
:04001c00cc03000011
:020000040000fa
:04002000cc0300000d
:020000040000fa
:04002400cc03000009
:020000040000fa
:04002800cc03000005
:020000040000fa
:04002c00cc03000001
:020000040000fa
:04003000cc030000fd
:020000040000fa
:0400340002030000c3
:020000040000fa
:04003800cc030000f5
:020000040000fa
:04003c00cc030000f1
:020000040000fa
:04004000cc030000ed
:020000040000fa
:04004400cc030000e9
:020000040000fa
:04004800fa020000b8
:020000040000fa
:04004c00cc030000e1
:020000040000fa
:04005000cc030000dd
:020000040000fa
:040054007003000035
:020000040000fa
:04005800a2030000ff
:020000040000fa
:04005c004c03000051
:020000040000fa
:04006000cc030000cd
:020000040000fa
:04006400cc030000c9
:020000040000fa
:04006800cc030000c5
:020000040000fa
:04006c00cc030000c1
:020000040000fa
:04007000cc030000bd
:020000040000fa
:04007400cc030000b9
:020000040000fa
:04007800cc030000b5
:020000040000fa
:04007c00cc030000b1
:020000040000fa
:04008000cc030000ad
:020000040000fa
:04008400cc030000a9
:020000040000fa
:04008800cc030000a5
:020000040000fa
:04008c00cc030000a1
:020000040000fa
:04009000cc0300009d
:020000040000fa
:040094002203000043
:020000040000fa
:04009800cc03000095
:020000040000fa
:04009c00cc03000091
:020000040000fa
:0400a000cc0300008d
:020000040000fa
:0400a400cc03000089
:020000040000fa
:0400a800cc03000085
:020000040000fa
:0400ac00cc03000081
:020000040000fa
:0400b000cc0300007d
:020000040000fa
:0400b400cc03000079
:020000040000fa
:0400b800cc03000075
:020000040000fa
:0400bc00cc03000071
:020000040000fa
:0400c000cc0300006d
:020000040000fa
:0400c400cc03000069
:020000040000fa
:0400c800cc03000065
:020000040000fa
:0400cc00cc03000061
:020000040000fa
:0400d000cc0300005d
:020000040000fa
:0400d400cc03000059
:020000040000fa
:0400d800cc03000055
:020000040000fa
:0400dc00cc03000051
:020000040000fa
:0400e000cc0300004d
:020000040000fa
:0400e400cc03000049
:020000040000fa
:0400e800cc03000045
:020000040000fa
:0400ec00cc03000041
:020000040000fa
:0400f000cc0300003d
:020000040000fa
:0400f400cc03000039
:020000040000fa
:0400f800cc03000035
:020000040000fa
:0400fc00cc03000031
:020000040000fa
:04010000cc0300002c
:020000040000fa
:04010400cc03000028
:020000040000fa
:04010800cc03000024
:020000040000fa
:04010c00cc03000020
:020000040000fa
:04011000cc0300001c
:020000040000fa
:04011400cc03000018
:020000040000fa
:04011800cc03000014
:020000040000fa
:04011c00cc03000010
:020000040000fa
:04012000cc0300000c
:020000040000fa
:04012400cc03000008
:020000040000fa
:04012800cc03000004
:020000040000fa
:04012c00cc03000000
:020000040000fa
:04013000cc030000fc
:020000040000fa
:04013400cc030000f8
:020000040000fa
:04013800cc030000f4
:020000040000fa
:04013c00cc030000f0
:020000040000fa
:04014000cc030000ec
:020000040000fa
:04014400cc030000e8
:020000040000fa
:04014800cc030000e4
:020000040000fa
:04014c00cc030000e0
:020000040000fa
:04015000cc030000dc
:020000040000fa
:04015400cc030000d8
:020000040000fa
:04015800cc030000d4
:020000040000fa
:04015c00cc030000d0
:020000040000fa
:04016000cc030000cc
:020000040000fa
:04016400cc030000c8
:020000040000fa
:04016800cc030000c4
:020000040000fa
:04016c00cc030000c0
:020000040000fa
:04017000cc030000bc
:020000040000fa
:04017400cc030000b8
:020000040000fa
:04017800cc030000b4
:020000040000fa
:04017c00cc030000b0
:020000040000fa
:04018000cc030000ac
:020000040000fa
:04018400cc030000a8
:020000040000fa
:04018800cc030000a4
:020000040000fa
:04018c00cc030000a0
:020000040000fa
:04019000cc0300009c
:020000040000fa
:04019400cc03000098
:020000040000fa
:04019800cc03000094
:020000040000fa
:04019c00cc03000090
:020000040000fa
:0401a000cc0300008c
:020000040000fa
:0401a400cc03000088
:020000040000fa
:0401a800cc03000084
:020000040000fa
:0401ac00cc03000080
:020000040000fa
:0401b000cc0300007c
:020000040000fa
:0401b400cc03000078
:020000040000fa
:0401b800cc03000074
:020000040000fa
:0401bc00cc03000070
:020000040000fa
:0401c000cc0300006c
:020000040000fa
:0401c400cc03000068
:020000040000fa
:0401c800cc03000064
:020000040000fa
:0401cc00cc03000060
:020000040000fa
:0401d000cc0300005c
:020000040000fa
:0401d400cc03000058
:020000040000fa
:0401d800cc03000054
:020000040000fa
:0401dc00cc03000050
:020000040000fa
:0401e000cc0300004c
:020000040000fa
:0401e400cc03000048
:020000040000fa
:0401e800cc03000044
:020000040000fa
:0401ec00cc03000040
:020000040000fa
:0401f000cc0300003c
:020000040000fa
:0401f400cc03000038
:020000040000fa
:0401f800cc03000034
:020000040000fa
:0401fc00cc03000030
:020000040000fa
:04020000cc0300002b
:020000040000fa
:04020400cc03000027
:020000040000fa
:04020800cc03000023
:020000040000fa
:04020c00cc0300001f
:020000040000fa
:04021000cc0300001b
:020000040000fa
:04021400cc03000017
:020000040000fa
:04021800cc03000013
:020000040000fa
:04021c00cc0300000f
:020000040000fa
:04022000cc0300000b
:020000040000fa
:04022400cc03000007
:020000040000fa
:04022800cc03000003
:020000040000fa
:04022c00cc030000ff
:020000040000fa
:04023000cc030000fb
:020000040000fa
:04023400cc030000f7
:020000040000fa
:04023800cc030000f3
:020000040000fa
:04023c00cc030000ef
:020000040000fa
:04024000cc030000eb
:020000040000fa
:04024400cc030000e7
:020000040000fa
:04024800cc030000e3
:020000040000fa
:04024c00cc030000df
:020000040000fa
:04025000cc030000db
:020000040000fa
:04025400cc030000d7
:020000040000fa
:04025800cc030000d3
:020000040000fa
:04025c00cc030000cf
:020000040000fa
:04026000cc030000cb
:020000040000fa
:04026400cc030000c7
:020000040000fa
:04026800cc030000c3
:020000040000fa
:04026c00cc030000bf
:020000040000fa
:04027000cc030000bb
:020000040000fa
:04027400cc030000b7
:020000040000fa
:04027800cc030000b3
:020000040000fa
:04027c00cc030000af
:020000040000fa
:04028000cc030000ab
:020000040000fa
:100400000f1621000eff2c000e01880000000000d6
:10041000000020000000e000020032000001200087
:100420002002880014000700e80007000000e00038
:1004300003003a0020a42100010020000200370040
:100440000000200001002000810f70000100320038
:100450000f000700000020000000e0000200320052
:100460000000020000000000c60e020000000000b4
:100470000040da000000fe00200020000000e00044
:1004800002003200100020009001880000000600e9
:10049000a1028800800478000000eb001f003700f4
:1004a000e284440054a0b4009905ba00e2844400f8
:1004b00054a0b4009906ba00e284440054a0b400e9
:1004c0000006eb00476fde00fd07b200ae018800ba
:1004d000636ce10003003a000ad801000000eb0061
:1004e0000e003700606ce10008003a00004deb00a0
:1004f0000a05e800020039003420ec000af0a000f0
:100500008b05e900f9ff3e00040037006168e10057
:10051000010032000086eb000b00070019c7ba008b
:100520000e04e0001905ba0003003a000a00e000da
:10053000dbff3a0000000600fe07b200ae028800b2
:100540008a047800f5ff37000cd0a300e20f4d00bd
:100550001c003b0089027800354dba000a05e8000e
:10056000020039003420ec000af0a0008b05e900fd
:100570000f003200254dba000a05e80002003900dc
:100580003420ec000af0a0008b05e90008003200de
:100590000c00e0000600320015cdba000a05e800a4
:1005a000020039003420ec000af0a0008b05e900bd
:1005b0008984e80054a0b4000b00e000e2ff3a0098
:1005c000000006009902ba00055d78008b05e9007d
:1005d000f7ff3200c82ade00055d78008b05e900d0
:1005e000f3ff32000c00e000f1ff320019ddba0029
:1005f000eeff37000000fa000108a9000080fa00b1
:10060000004006003600f800809fbe00829fbe00ba
:10061000849fbe00869fbe000000fa000068a9000b
:1006200024080700b00a07000080fa004f03be004c
:100630004f02be004f01be004f00be003600f90061
:10064000004006003600f800809fbe00829fbe007a
:10065000849fbe00869fbe000000fa000368a900c8
:10066000a0808000b180800061004000e0804800f0
:10067000a0808800b18088009f0407000080fa00f5
:100680004f03be004f02be004f01be004f00be0030
:100690003600f90000400600801f78000000fa00d4
:1006a00001a8a90000188000908a88001018800016
:1006b000a08a880020188000b08a88003018800046
:1006c000c08a880040188000d08a880010c0b3001b
:1006d00029f0b7000080fa004f00780000400600c3
:1006e000801f78000000fa000168a9001011800046
:1006f000640060000000e000010032002242a90016
:1007000010118000620060000000e000050032006f
:100710002222a90004003700301180002011880037
:10072000010037000000000010118000610060002f
:100730000000e000f8ff3a000080fa004f00780067
:10074000004006003600f800809fbe00829fbe0079
:10075000849fbe00869fbe000000fa000188a900a9
:10076000e1808000d0808000808f50000200320045
:10077000fe090700010037001e70ef000080fa003c
:100780004f03be004f02be004f01be004f00be002f
:100790003600f900004006000040da000000fe00cc
:1007a000000178001001e200020035001061a8008d
:1007b00011e1a80030088000410880000200e0003c
:1007c000010032000089be000000060000000500a4
:1007d00014002000aa033700f4ff2f00a8033700fd
:1007e0000001be003c0007000470a70003f0a10058
:1007f0006509b100160032000d0035006828e100df
:1008000006003500f0ff2f00f1ff27000300e00095
:1008100013003b000100280000000500000040001c
:10082000818048008502e900fcff3a00080037009b
:10083000f88f420002003c008000eb000000050041
:100840008100d1000080d3008502e800fcff3a005f
:100850000300e00002003b0060001000e080180090
:10086000000006000001be001b0007000470a70086
:1008700003f0a10003f8a30013003a006509b100da
:1008800010003200090035006928e100020035003f
:1008900001002800000005000000400081804800a1
:1008a0008502e900fcff3a0000000600f88f4200d4
:1008b000050035008100d1000080d3008502e800ea
:1008c000fcff3a00000006008000eb00000005007d
:1008d0006011b80085033700c70ade00f107b200d7
:1008e000f50fb20008003200e1cf420002003200f2
:1008f0000170a00024000500810f7000010032008b
:100900000408050044000500810f700002003a0051
:10091000140005008502e9000000400081c0480085
:10092000fcff3b000170a0002400050007f8270031
:10093000078361000638e10004003a00f707200051
:10094000878361008703710001003a0003f0a20071
:10095000889fbe008a9fbe008c9fbe00470ade00b3
:100960000480a100c71ade000580a100070028004e
:100970000785600087856100f70f20000720e100f0
:100980009e0032000728e1009c003200010678003a
:100990000400e000b4003200f70720008780600008
:1009a0000170a0000500e000c0003200f707200041
:1009b000878161000370a000050652000f003a0015
:1009c0000b50e1000b0032000308e10002003a0086
:1009d0000200e1007e0032000204500083845800cf
:1009e000040031000001fd008101fd008402fd00d2
:1009f0008a05fd006044b800210037000520e100b1
:100a000005003d000001fd008101fd008402fd00a4
:100a10008a05fd00050652007a60e10005003500f8
:100a20000170a1004722dd00848070008a80700080
:100a3000630037006044b800ef02660007ff2f0034
:100a4000070666000500e00006003400f08312008f
:100a50008714dd000511de00071bdd0006017100b3
:100a60008519de007060e10005003500090478009a
:100a700082047800030178008001eb0070065600c4
:100a80000b50e10003003a00020040008380480060
:100a90000400370060041400e0841c0002005800c9
:100aa000838058000188a300060032008100d10035
:100ab0000080d3008984d3000884d3000402e800b6
:100ac000270037000178a30025003a000100e0006c
:100ad000030032008186cf00698656000a00370085
:100ae0008c0020000000e00004003a0009007800bb
:100af000880478000004eb00700252008086cf006a
:100b00000d0646000c06e9007060e10006003500a5
:100b10008000780009007800880478000004eb0069
:100b200070065600700252000c00e0000c00340009
:100b30008c08dd00f00316000703de0086807000dd
:100b40000c00dd00074bde00060070008c4cdd0061
:100b50000743de00868474000c44dd000c02520062
:100b60006120e100200035006101600007002800dd
:100b700087816400f7ff2700878364000703740000
:100b80000300e0000600320082037300040032001c
:100b90000000e800e08048000188a3000e003a0051
:100ba000f70f20000720e1004a003d000170a1007e
:100bb0004722dd00810072008a8070000000be00c4
:100bc0004f06be004f05be004f04be0000000600e9
:100bd0006000b800faff37008100d1000080d30028
:100be0000402e800eeff3700040178008901740078
:100bf000a10107008a807000f1ff3700f7010700ac
:100c0000070278000001fd008101fd00f3010700eb
:100c100087027800850372000778a3000400320081
:100c20000001fd008101fd0006020700e4ff37001e
:100c3000850362000768a300080032000b50e10042
:100c400003003200f0ff2f00f1ff2700dcff370028
:100c50000001fd008101fd00d9ff37000468a300f9
:100c6000d7ff3200faff3700f8ff270088836000c3
:100c70000b003a000000e00009003a008303640022
:100c800082837300020032000200be00ccff3700f6
:100c90000b50e100ceff3a000200be00c8ff370053
:100ca00014002000810064003eff3700f8ff270099
:100cb0008883610004003a000200e00002003a006c
:100cc0008c007800beff370015002000830164000f
:100cd00039ff370001f8270000002000810075006f
:100ce000b7ff3700889fbe008a9fbe008c9fbe0062
:100cf0001b0020000202be000586680006002800d6
:100d0000060666004709de00f20fb20082003200dc
:100d10000243e80080003200c729de00f30fb20072
:100d20007d0032000343e8007b003200f107b2008f
:100d30000170a000f507b2000570a000c708dd0033
:100d40004903de00868070004700dd00c72add0011
:100d50004923de00868272004722dd000305510030
:100d60000403500085835800030031000000400058
:100d7000818048000a05e9008c1f78008a9fbe0028
:100d800004005000858058000402420085824a0019
:100d900000004000818048000005eb000004be0018
:100da0006033b8000406be000d48e1005600310073
:100db000110009004dccd8000c01b8000d02b8009c
:100dc0008481410060824a008283530003045c00f6
:100dd00084845c0060055d000a00e00025003a00a4
:100de000800578000d40e10049003100880078005e
:100df00007007800110009004d88d8000c01b800e8
:100e00000d02b8008481410060824a006003110035
:100e100083835b0004045c00e0845c000900e00064
:100e200021003a004f01be000300e0002b00320019
:100e3000e3016000070673008c817100010032003d
:100e4000640070004200de004e5edd000c007000a9
:100e5000c258de0001e0a00083010700cf01780046
:100e6000818071004f06be004f05be004f04be00da
:100e7000000006008c8343000d044c00e0844c000d
:100e800060054d000000e9000a00e000d4ff3200d8
:100e90008c8343000d044c00e0844c0060054d0041
:100ea0000000e900ceff37000c0343008d834b00a8
:100eb00060044c00e0844c000000e9000900e00000
:100ec000d8ff32000c0343008d834b0060044c00bc
:100ed000e0844c000000e900d2ff37004200de0051
:100ee0004e5edd000c007000c258de0001e0a00084
:100ef000cf0178000300e000daff3200600010004c
:100f0000e0801800d7ff3700f0ff2f00aaff37005e
:100f1000f0ff2f00b9ff37000404be002f010700c7
:100f2000870678000004fd008104fd002b01070006
:100f3000078366000678a300030032000960a7005b
:100f40000800be002c0037000d78a300020032001c
:100f50000800be00280037000778a30026003a00ea
:100f600001f0a10009f0a1000668a300030032000f
:100f7000f1ff2700f0ff2f00baff37000d68a30034
:100f8000030032000800be008c807000b5ff3700ff
:100f90000768a30007003a000648a30003003200d8
:100fa000f1ff2700f0ff2f00aeff37000d48a30030
:100fb000030032006000b8008c807000a9ff370089
:100fc0000748a3000400320001f8270000002000b9
:100fd0008c807000a3ff3700760107000004fd003d
:100fe0008104fd0002057800720107000802be00be
:100ff0008a01780059ff37000160a000120220002a
:101000005281880097ff37000100e0001200320093
:101010000500e00010003200889fbe008a9fbe00dd
:101020008c9fbe000006eb0001f8a3000300320015
:1010300060001000e08018000cf0a00005f8a3008c
:101040000300320060021200e0821a000cf0a200dd
:101050008005eb0041ff37006000b800020005008a
:10106000038368000700280007036300470ade00c7
:101070000480a100c71ade000580a100f70f200040
:101080000720e100420032000728e1004000320062
:10109000889fbe008a9fbe008c1f7800f107b200b7
:1010a000f307b2000400e000640032000170a00009
:1010b0000500e000680032000370a00085054200d2
:1010c000eb07b1000204b8000302b80084844400b6
:1010d00060854a00020ab800848444000a854a00f8
:1010e000030ab80004054500040033000804d000da
:1010f0008984d2000a85d2008b05e9006158e1009d
:101100003d003500021020000901610003082000a5
:1011100089816100f70720008783640008867300d7
:10112000c84cde00c853dd00878474004855de00db
:101130000300e00006003200820376000400320063
:101140008904e80060054d000a88a3000c003a00fd
:10115000f70f20000758e10044003d000a70a1008d
:10116000c75ddd000a8575008a00730009007800fc
:101170004f0678004f05be004f04be000000060079
:101180000a05d1008984d3008b05e800f0ff370001
:10119000881f780006047800900007000702780096
:1011a0000001fd008101fd008c000700870278002e
:1011b000850372000778a300050032000001fd00de
:1011c0008101fd009f0007004f0478000000060029
:1011d000850372000748a30003003200f0ff2f00d0
:1011e000f1ff2700f8ff37000000200001f827007a
:1011f00088807000f4ff3700880178004848dd00df
:10120000808171004848de00c850dd000100700098
:10121000c850de00060478000b01780016000700b5
:1012200088807000d2ff37000500e0000500320022
:10123000170020003a0007009dff3700810370006f
:10124000f9ff3a00860078004f0678004f05be008f
:101250004f04be000000050083037100f9ff320057
:10126000270020002e00070094ff370001f8270018
:1012700086807000f4ff37000100e0002600320095
:10128000610111007810e10023003c006022b800e9
:101290007010e10004003500800278000100780041
:1012a0008000eb00700151000200e00009003400f2
:1012b00070031100062add00822ade008603dd00ad
:1012c000878272000200de00860bdd0007007000de
:1012d0008208de0084817100f4ff2700048262002e
:1012e0008481710004002800848262006102600031
:1012f00005f0a6000000060004827100070032001d
:101300000000e800e0804800000006000002be0087
:101310006000b800efff37006000b8000000060072
:10132000889fbe000004eb006138e10016003a001f
:101330000100e00008003a00c800de004800dd00bf
:10134000880020000100e00003003a00c800de0031
:101350004800dd00680444008184cf00e984540023
:10136000060034008908dd00f08314008703de00e6
:10137000878070000900dd00090444006102140048
:101380004f04be00000006000300e00008003a0021
:10139000c811de004811dd00880020000300e000d5
:1013a00003003a00c811de004811dd006804440063
:1013b0008384cf00e9845400060034008919dd00dd
:1013c000f08314008713de00878171000911dd00ae
:1013d00009044400e1021400e9ff3700270020005f
:1013e00001f0a70017002000470bde00f60fb20047
:1013f000040032000643e8000a0032004702b3004e
:101400000000060001037800f607b2000603700032
:1014100002003a000703b300000006008702b30091
:101420000000060001037800f607b2000603700012
:10143000020032000770a000000006000760a00054
:10144000000006000478a300040032000578a30021
:10145000030032000168a30001003a000200be0050
:101460000160a0000000060081017000270032002a
:101470008002eb0001f8a3000300320060001000be
:10148000e080180015002000f4072000020242004e
:1014900020003400f70320008703600006042000ca
:1014a0000003630002082000000161004700de0025
:1014b000c909dd0000807100c708de000600e000f9
:1014c0000800320087037100060032001000b000ef
:1014d0000180b0000188a30002003200c108de00d4
:1014e0000402e800f107b200f30f20000320e1003e
:1014f00003003d004722dd00810072002900370013
:1015000001f827000000eb00260037006000b8005b
:1015100000000600680212007f20e1000200340093
:101520006000b8001f0037006011b8007020e100b3
:101530000400350080017800010078008000eb0095
:10154000700252000400e00009003400f0031200b1
:101550000719dd008419de000703dd0086817100b4
:101560000400de00070bdd00060070008408de00ca
:10157000f7ff2700838363008703710006002800bc
:1015800003036300070032000700e00003003a0095
:101590006101600002817300020032001000b0009f
:1015a0000180b0000500a6000000060001f0a000c8
:1015b000000006004f0ade004709de00f107b20016
:1015c000f20fb2000b003200f207b1000170a00070
:1015d000c708dd00c901de00838070004700dd0020
:1015e0000400a6000000060060001000e080180063
:1015f00000000600810f700001003a0000000600a4
:101600008182cf000500e00010003e008082cf0004
:10161000ee8242007028e1000400390007003e001d
:10162000800078000000eb000e003700708312008d
:101630008600de000500dd000a00370070835200de
:101640008600dd000000eb0006003700e282520059
:101650008508dd00708312000603de0086807000be
:101660000500dd007507b0000501ea000400a600d2
:101670000000060060001000e08018000000060076
:10168000889fbe008a9fbe00841f78006c00070000
:101690004f00780011003300f0ff2f00838f6c00a3
:1016a00006003b00040565000a00a700080037009b
:1016b00009f0a6001000200008003700820f540037
:1016c000838f5c00030039001000200001003e0001
:1016d0000000200009f0a7000000ea004f05be004e
:1016e0004f04be000000e00000000600889fbe001e
:1016f0008a9fbe00008270000402710004827100a3
:10170000260032000004be000200be006011b800d6
:101710006b092000950220000182cf000a003900e9
:101720000541b1000082cf00070039000541b1003a
:101730000982cf00040039000541b1000882cf00c2
:10174000010039000541b10005425200120032008b
:101750000a003b0082817100610164008100d100b8
:101760000080d3008984d3000884d3008b05e8006f
:101770000442e800f7ff3a0007003700080444007d
:1017800089844c0000004800818048008b05e900f6
:101790000442e900f9ff3a00030007004f05be00cc
:1017a0004f04be000000060081002000618055004b
:1017b0000b003d000b00200061fe2f000100e10046
:1017c0001d00340082817100610164008904d10030
:1017d0000884d3000000e800faff3a0071002000fe
:1017e0006100640003007000020060000900320024
:1017f00061044400e0844c000988a5000500320023
:101800008b05e8006808e10002003a008904d10075
:101810000884d300f20f20000258e10005003d00cb
:10182000c75ddd00f907b200898075000800780007
:10183000000006000bf827008b0078000000050070
:101840000004be0024fc07000003be000405be0027
:101850000200be0020fc0700844f75000000060057
:101860000000e9008000eb00e08a8800f18a88002f
:1018700000000600d2f2270053c92400e08a80004d
:10188000f18a80000700070061014000e081480004
:10189000e28a8800f38a88004118de0001002000f7
:1018a00000000600020ab900001bb9000200b800df
:0c18b0008100420081004300000006009f
:020000040000fa
:1018bc000000fa000000eb00b6fb07000000780007
:1018cc00e4ff0700e8ff0700310020000101780069
:1018dc00110009000200d8008000fd001080880073
:1018ec00108080000080fa00000006000000fa0062
:1018fc0000d0bf000080fb00cf80de002201200062
:10190c0003002000820f5000838f580073003e00ac
:10191c0000060100120037001b00370024003700be
:10192c002e0037002f003700380037003900370001
:10193c0042003700430037004d0037004e0037009f
:10194c00580037006500370064003700630037002b
:10195c006200370061003700540037005d0037002b
:10196c001430ef001630ef000001eb006000b800ff
:10197c00ec030700120020006000b800e903070028
:10198c0010c0b30000f0b700a2808000b3808000cc
:10199c008038210001002000800f5100818f5900f8
:1019ac005100360020c0b30000f0b7004f003700e4
:1019bc000001eb0000002000811c2400d90307006b
:1019cc001200200000002000811c2400d503070019
:1019dc0030c0b30000f0b70044003700920007009d
:1019ec00420037000001eb0000002000811c2400a5
:1019fc00cc030700120020006000b800c9030700e8
:101a0c0050c0b30000f0b700380037008600070064
:101a1c00360037000001eb006000b800c10307007e
:101a2c001200200000002000811c2400bd030700d0
:101a3c0070c0b30000f0b7002c0037007a0007002c
:101a4c002a0037000001eb000000200001192400df
:101a5c00b4030700120020000000200001192c0024
:101a6c00b003070090c0b30000f0b7001f003700b0
:101a7c006d0007001d0037000001eb000000200086
:101a8c00811c2c00a703070012002000000020007e
:101a9c00811c2400a3030700b0c0b30000f0b70002
:101aac001200370060000700100037000001eb0047
:101abc000000200001122c009a03070012002000e5
:101acc000000200001172c009603070020c1b30072
:101adc0000f0b70054000700040037000070ef005e
:101aec000000000001003700000000000080fa0038
:101afc00000006000000fa00881f78000630ef0096
:101b0c00508a8000618a800018c0b3000200200057
:101b1c00831b24002bfb07000000e00001003500b4
:101b2c000044eb000804e000030032003080800029
:101b3c000040a00030808800308a8000418a8000fc
:101b4c0018c0b30002002000031d24001dfb070079
:101b5c000000e000010035000044eb000804e00048
:101b6c0003003200308080000030a00030808800fc
:101b7c00108a8000218a800018c0b3000200200067
:101b8c00832124000ffb07000000e000010035005a
:101b9c000044eb000804e0000300320030808000b9
:101bac000020a00030808800f0898000018a80002d
:101bbc0018c0b30002002000031d240001fb070025
:101bcc000000e000010035000044eb000804e000d8
:101bdc0003003200308080000010a00030808800ac
:101bec00708a8000818a800018c0b3000200200037
:101bfc00831b2400f3fa07000000e000010035000d
:101c0c000044eb000804e000030032003080800048
:101c1c000000a00030808800308080004f047800e5
:101c2c000080fa00000006000000fa00b1ff070077
:101c3c0030808800308080008000eb00f2012000b2
:101c4c0003002000820f5000838f580041003e009b
:101c5c00000601002500370027003700260037005a
:101c6c00250037001e003700230037002200370004
:101c7c00210037001a0037002200370024003700fb
:101c8c0020003700160037001e00370020003700f8
:101c9c001c00370012003700140037000d0037000d
:101cac00180037000e003700190037000900370004
:101cbc00140037000a003700060037000500370013
:101ccc001300370006003700020037000100370010
:101cdc000f003700a0c0b30004f0b7001d003700a0
:101cec0060c0b30004f0b7001a00370020c0b30086
:101cfc0004f0b7001700370040c0b30004f0b70081
:101d0c001400370080c0b30004f0b7001100370096
:101d1c00e7fe070040808800408080000000e00063
:101d2c0003003a0080c0b30004f0b700090037008c
:101d3c0040808000e10f500003003a00a0c0b300c7
:101d4c0004f0b7000300370010c1b30004f0b70073
:101d5c000000000004d0bf008080fb0000d0bf005a
:101d6c000080fb000000e900808f50000200320070
:101d7c0004d0bf0000f0b7000080fa00000006009d
:101d8c001000fa00881f780090050700280507004e
:101d9c006105070012010700120207001c02070070
:101dac002602070093040700d4040700e14f5000fb
:101dbc00fd003a00d5040700cc0407008000780031
:101dcc000e80e800010878000e80e8001000780012
:101ddc00100078008000eb00bafa070032332300c1
:101dec00330524009bfc070002002000035824004c
:101dfc00b9fb0700d2cc2c00c304240095fc0700cf
:101e0c00640147000089be0064004700100178009f
:101e1c00900190000000200081202400aefb070000
:101e2c0002002000030a2400bdfa0700708a880013
:101e3c00818a88000e80e800100078000080e8009d
:101e4c00100078008000eb009efa0700323323006c
:101e5c00330524007ffc07000200200003582400f7
:101e6c009dfb0700d2cc2c00c304240079fc070096
:101e7c00640147000089be0064004700100178002f
:101e8c0090019000000020008120240092fb0700ac
:101e9c0002002000030a2400a1fa0700f089880040
:101eac00018a88000e80e800100078006400400071
:101ebc00100078008000eb0082fa07003233230018
:101ecc003305240063fc07000200200003582400a3
:101edc0081fb0700d2cc2c00c30424005dfc07005e
:101eec00640147000089be006400470010017800bf
:101efc0090019000000020008120240076fb070058
:101f0c0002002000030a240085fa0700108a8800ca
:101f1c00218a88000e80e8001000780066004000de
:101f2c00100078008000eb0066fa070032332300c3
:101f3c003305240047fc070002002000035824004e
:101f4c0065fb0700d2cc2c00c304240041fc070025
:101f5c00640147000089be0064004700100178004e
:101f6c009001900000002000812024005afb070003
:101f7c0002002000030a240069fa0700308a880056
:101f8c00418a88000e80e80010007800680040004c
:101f9c00100078008000eb004afa0700323323006f
:101fac00330524002bfc07000200200003582400fa
:101fbc0049fb0700d2cc2c00c304240025fc0700ed
:101fcc00640147000089be006400470010017800de
:101fdc009001900000002000812024003efb0700af
:101fec0002002000030a24004dfa0700508a8800e2
:101ffc00618a88000103200068004700010878000e
:10200c003a040700800078006a0047000148780015
:10201c00210020006c004700010878006c0047008c
:10202c00900078006a004700104078000080fb00a8
:10203c0001017800800078006800470010007800eb
:10204c007b02070000a02500212620003105070097
:10205c00708a8000818a800018c0b30002002000c2
:10206c0003172400d7f907000000e0000100350039
:10207c000044eb000804e0000b003a00f0898000fb
:10208c00018a800018c0b30002002000031724004e
:10209c00ccf907000000e000010035000044eb0023
:1020ac000804e00002003200254ea80001003700b1
:1020bc00254ea900108a8000218a800018c0b30028
:1020cc0002002000031f2400bef907000000e000fe
:1020dc00010035000044eb000804e00016003a0053
:1020ec00308a8000418a800018c0b30002002000b2
:1020fc0003172400b3f907000000e00001003500cd
:10210c000044eb000804e0000b003a00f08980006a
:10211c00018a800018c0b3000200200003172400bd
:10212c00a8f907000000e000010035000044eb00b6
:10213c000804e0000200320064eea8000100370041
:10214c0064eea900308a8000418a800018c0b30078
:10215c0002002000031724009af907000000e00099
:10216c00010035000044eb000804e0000b003a00cd
:10217c00508a8000618a800018c0b30002002000e1
:10218c00031724008ff907000000e0000100350060
:10219c000044eb000804e0000200320064cea8000a
:1021ac000100370064cea9000000eb00000f78009e
:1021bc0007003700ec030700ee004700804878006a
:1021cc006e00470011002000240307001e0fe800da
:1021dc00ff0307009e0f5000f6ff3c00f2fe370095
:1021ec000000fa0013e1a90011e1a9001061a80098
:1021fc001021a90081088000f0fc2f0000806000f5
:10220c00800888000a21ef000621ef00404c2000d6
:10221c007008880000402b00600888002142800074
:10222c0080ff2f00008060000000a000204288008a
:10223c000108a9002108a80011e1a8000080fa00fb
:10224c00000006000400fa00881f7800008fbe0012
:10225c0021088000f0fc2f0000806000200888001e
:10226c001e0178009e0190000068290081c12400a5
:10227c0099fa070018c0b30002f02f00f37724007e
:10228c0052f907000000e00001003c000044eb00a4
:10229c000804e0005400320021088000f0fc2f00fc
:1022ac00008060000040a000200888001e0178001b
:1022bc009e0190000068290081c1240086fa070065
:1022cc00020020000310240083fa070018c0b3009a
:1022dc0002f02f00f37724003cf907000000e00027
:1022ec0001003c000044eb000804e0003200320026
:1022fc0021088000f0fc2f00008060000050a0003e
:10230c00200888001e0178009e01900000682900ba
:10231c0081c1240070fa0700020020000328240069
:10232c006dfa070018c0b30002f02f00f3772400f9
:10233c0026f907000000e00001003c000044eb001f
:10234c000804e00010003200210880000003200087
:10235c0001007000200888001e0178009e0190008a
:10236c000068290081c124005bfa070002002000ec
:10237c000338240058fa070016f90700000078000b
:10238c0010088800200037001e0178009e01900084
:10239c000068290081c124004ffa070002002000c8
:1023ac00032824004cfa07000af907000000780003
:1023bc0010088800140037001e0178009e01900060
:1023cc000068290081c1240043fa070002002000a4
:1023dc000310240040fa0700fef807000000780004
:1023ec0010088800080037001e0178009e0190003c
:1023fc000068290081c1240037fa0700f5f80700ae
:10240c0000007800100888004f0478000080fa0063
:10241c00000006000400fa00881f7800008fbe0040
:10242c00f1088000f0fc2f0000806000f0088800ac
:10243c001e0178009e0190000068290081c12400d3
:10244c0025fa070018c0b30002f02f00f377240020
:10245c00def807000000e00001003c000044eb0047
:10246c000804e00054003200f1088000f0fc2f005a
:10247c00008060000040a000f00888001e01780079
:10248c009e0190000068290081c1240012fa070007
:10249c0002002000031024000ffa070018c0b3003c
:1024ac0002f02f00f3772400c8f807000000e000ca
:1024bc0001003c000044eb000804e0003200320054
:1024cc00f1088000f0fc2f00008060000050a0009c
:1024dc00f00888001e0178009e0190000068290019
:1024ec0081c12400fcf9070002002000032824000d
:1024fc00f9f9070018c0b30002f02f00f37724009d
:10250c00b2f807000000e00001003c000044eb00c2
:10251c000804e00010003200f108800000032000e5
:10252c0001007000f00888001e0178009e019000e8
:10253c000068290081c12400e7f90700020020008f
:10254c0003382400e4f90700a2f807000000780023
:10255c00d0088800200037001e0178009e019000f2
:10256c000068290081c12400dbf90700020020006b
:10257c0003282400d8f9070096f80700000078001b
:10258c00d0088800140037001e0178009e019000ce
:10259c000068290081c12400cff907000200200047
:1025ac0003102400ccf907008af80700000078001b
:1025bc00d0088800080037001e0178009e019000aa
:1025cc000068290081c12400c3f9070081f80700c5
:1025dc0000007800d00888004f0478000080fa00d2
:1025ec00000006000000fa0005e1a9000000200030
:1025fc00a137240013ff07000421a9000068a900db
:10260c002068a80005e1a8000080fa000000060080
:10261c000000fa001fe1a90000002000a1472400df
:10262c007cff07001e21a9000368a9002368a800ed
:10263c001fe1a8000080fa00000006000000fa006c
:10264c001160800080ff2f00008060001060880007
:10265c00042cef0023aca800238ca800116180008f
:10266c00f03f2f000080600000a0a00010618800e7
:10267c003000200020618800c3aca800c38ca800e7
:10268c0011668000f03f2f000080600000a0a000c9
:10269c0010668800300020002066880001eca8003d
:1026ac000080fa00000006000000fa00889fbe00bf
:1026bc00d4898000e5898000b0898000c1898000c0
:1026cc0018c0b3000001be000400be003df80700b6
:1026dc000000e000010035000044eb000804e000bd
:1026ec000d003200b8898000c9898000d48980002f
:1026fc00e589800000818000118180000001be000e
:10270c000400be008ff807000801be007601070028
:10271c00d0898800e1898800d4898000e58980000f
:10272c00b0898000c189800018c0b3000001be00d0
:10273c000400be0025f807000000e00001003c008a
:10274c000044eb000804e0000d003200b889800062
:10275c00c9898000d4898000e589800000818000cf
:10276c00118180000001be000400be006cf807005f
:10277c000801be0042010700d0898800e189880069
:10278c00d0898000e189800018c0b3006011b800c6
:10279c000ef807000000e00001003c000044eb00d4
:1027ac000804e00004003200c3cca90024eea80009
:1027bc00c3eca80003003700c3eca90024cea8008a
:1027cc00c3cca800d0898000e189800016010700e5
:1027dc006011b8001ffa07001ff80700000078000e
:1027ec003066880094898000a589800070898000fb
:1027fc008189800018c0b3000001be000400be0037
:10280c00f0f707000000e000010035000044eb0089
:10281c000804e0000d00320078898000898980006e
:10282c0094898000a589800000818000118180003e
:10283c000001be000400be0042f807000801be0003
:10284c002901070090898800a1898800948980005b
:10285c00a5898000708980008189800018c0b30030
:10286c000001be000400be00d8f707000000e00025
:10287c0001003c000044eb000804e0000d003200b5
:10288c00788980008989800094898000a5898000de
:10289c0000818000118180000001be000400be0098
:1028ac001ff807000801be00f5000700908988009a
:1028bc00a189880090898000a189800018c0b3008c
:1028cc006011b800c1f707000000e00001003c00f7
:1028dc000044eb000804e0000400320023cca90003
:1028ec0015eea80023eca8000300370023eca90088
:1028fc0015cea80023cca80090898000a189800067
:10290c00c90007006011b800d2f90700d2f7070020
:10291c0000007800306188004f04be000080fa008f
:10292c00000006000600fa00008fbe00640047009d
:10293c00020878006400470010007800e10f500096
:10294c0004003a001e0178009e01900072898800f4
:10295c008389880064004700100078000000e000c4
:10296c0005003a001e0078009e00900001f0a200c5
:10297c00b0898800c18988000080fa000000060038
:10298c000a00fa00e401470080097800660047005d
:10299c000108780068004700020878000040eb004e
:1029ac00004f7800e0cfb3001e4f68006400470072
:1029bc0010007800004078001e4f68006600470049
:1029cc0010007800004078001e4f68008000eb007b
:1029dc000e80e800010878000c0037000e80e8003b
:1029ec00900078006800470010007800010040005b
:1029fc00104078001e4f68000e80e8001000780030
:102a0c008000e8000e80e800010878000e80e800e5
:102a1c00900078006600470010007800808f50000e
:102a2c00eeff35001e4078000080fa000000060022
:102a3c001000fa00889fbe00ea0147008009780068
:102a4c006c004700010878006e004700020878000f
:102a5c000f0478000f007800800478006e004700a7
:102a6c00100178006c004700900078006a00470065
:102a7c0010007800c2ff0700e4004700804878008f
:102a8c006c00470010007800660040000001e9006f
:102a9c00e6004700820878000000e8000000e8002b
:102aac000000d100800040000f00780081874700b3
:102abc000000e8000000d10000004000e8004700e2
:102acc00800878000000eb00000f780068004700d9
:102adc00100078001e004000e1cfb30001487800e0
:102aec001e0fe8006a004700100078004880de00e6
:102afc008040780068004700100078001e004000fd
:102b0c00014878001e0fe8006a00470010007800aa
:102b1c008040780068004700100078001e004000dc
:102b2c00014878001e0fe8006c0047001000780088
:102b3c004880de0080407800680047001000780074
:102b4c001e004000014878001e0fe8006c00470092
:102b5c001000780080407800680047001000780072
:102b6c001e004000014878001e0fe8008000eb00ba
:102b7c000e80e80001087800160037001e0078006f
:102b8c00e8004700910078008080400011417800f7
:102b9c008e80e80091017800ee00470091007800eb
:102bac0083804000914078008140410068014700db
:102bbc001201780000004100014878001e0fe80067
:102bcc000e80e800100078008000e8000e80e8001d
:102bdc00010878000e80e800900078006c00470037
:102bec0010007800808f5000e4ff3500680047002b
:102bfc00100078001e004000e400470011487800e7
:102c0c001e0fe80068004700100078009e00780056
:102c1c009200070089077800880778004f04be00ef
:102c2c000080fa00000006000400fa00881f7800fb
:102c3c00008fbe0018c0b3006011b8001e007800f1
:102c4c009e009000e1f607000000e00001003d004e
:102c5c000044eb000804e000030032001e00780082
:102c6c009e009000030037001e0078009e0090002c
:102c7c0001f0a2004f0478000080fa00000006006a
:102c8c000800fa00881f7800008fbe00640047001f
:102c9c000288be0018c0b300640047001001780021
:102cac00900190001e0078009e009000c7f607006f
:102cbc000000e00001003c000044eb000804e000d0
:102ccc00030032001e0078009e00900003003700c5
:102cdc006400470090009000100078004f047800ca
:102cec000080fa00000006000800fa00881f780037
:102cfc00008fbe00640047000288be0018c0b300fd
:102d0c006400470010017800900190001e007800cc
:102d1c009e009000abf607000000e00001003500bb
:102d2c000044eb000804e000030032001e007800b1
:102d3c009e00900003003700640047009000900054
:102d4c00100078004f0478000080fa0000000600a4
:102d5c000c00fa00881f7800008fbe00640047004a
:102d6c000288be00680047000488be0018c0b3008b
:102d7c006800470010017800900190001e00780058
:102d8c009e00900091f607000000e00001003c005e
:102d9c000044eb000804e000040032006800470027
:102dac00301f7800201778000f00370018c0b300d0
:102dbc006400470010017800900190001e0078001c
:102dcc009e0090007ff607000000e0000100350037
:102ddc000044eb000804e0000300320064004700ec
:102dec00301f7800201778001e0078009e0090009d
:102dfc004f0478000080fa00000006000400fa007e
:102e0c00008fbe00b2fd2000930424001e00780049
:102e1c009e009000b0f7070002002000433324000e
:102e2c008cf807000080fa00000006000400fa008d
:102e3c00008fbe00b2fd2000930424001e00780019
:102e4c009e00900083f8070002002000433324000a
:102e5c00a1f707000080fa00000006000600fa0047
:102e6c000e81e80000097800640047000108780032
:102e7c000040eb00004f780058000700e4004700ca
:102e8c0091007800810f5000130034000040eb00db
:102e9c00004f7800070037001e80fb008e80e80092
:102eac009100780000804000104078000c00070072
:102ebc001e4fe8001e80fb00e400470091007800e4
:102ecc00810f5000f4ff35002e0007000004e000d5
:102edc0001003a00220007000080fa000000060002
:102eec000200fa00004f7800d1808000c00221005f
:102efc00010040001e487800d08080000000e800ef
:102f0c00d0808800d1808000f0072000808f500096
:102f1c00010034001a30ef000080fa0000000600b7
:102f2c000200fa00e1808000c00221000100400094
:102f3c00104f7800e08080000000e800e0808800fe
:102f4c00e1808000f0072000808f500001003400e9
:102f5c001c30ef001e4078000080fa0000000600d4
:102f6c000200fa0010c0b3001ef0b700ecff07001f
:102f7c00004f78001e80fb00201188000080fa00b2
:102f8c00000006000000fa001ed0bf000080fa000e
:102f9c00000006000200fa00d1808000e080800072
:102fac00808f500005003500d1808000e0808000cb
:102fbc00008f50001e00780006003700d180800082
:102fcc00e08080000080500001082000010f4000cc
:102fdc001e0078000080fa00000006000000fa00d5
:102fec00ecff070001082000008050000080fa0070
:102ffc00000006000000fa0021e3a9002143a8000c
:10300c0001198000f0cf2f000080600000198800ab
:10301c002043a90001198000000e2000010070005f
:10302c000019880011198000f0ff21000080600059
:10303c00101988002343a80011198000f0cf2f002d
:10304c0000806000101988001119800030f82f00e2
:10305c00008060000040a000101988002203a90025
:10306c002223a90025e3a900f0c0b30024e3b70094
:10307c0021198000f00f2e008080600000f02000ed
:10308c0001007000201988003303a9002e0ea8003f
:10309c002f6ea8006f2ea8004feea8001e2ea800c1
:1030ac003063a80030c3a8003163a80031e3a80046
:1030bc002e03a8004119800000fc2f000080600046
:1030cc004019880028e3a90001a8a90021a8a8009c
:1030dc0021e3a8000080fa00000006000000fa00be
:1030ec002023a8000080fa00000006000000fa006f
:1030fc00201521000080fa00000006000000fa00f4
:10310c0029d0bf000080fa00000006000000fa0081
:10311c002970ef000080fa00000006000200fa009f
:10312c00004f78003c0007000000e0000c00340069
:10313c0021818000c00a2100010040001e48780057
:10314c00208180000000e80020818800218180001f
:10315c00f0072000808f5000010034002430ef0075
:10316c000080fa00000006000200fa0021818000b5
:10317c00c00a210001004000104f7800208180001f
:10318c000000e8002081880021818000f0072000e9
:10319c00808f5000010034002430ef001e40780076
:1031ac000080fa00000006000000fa002181800077
:1031bc0030818000808f50000200320010c0b300bc
:1031cc00010037000040eb000080fa000000060010
:1031dc000200fa002181800030818000808f500035
:1031ec00050035002181800030818000008f500067
:1031fc001e0078000600370021818000308180009d
:10320c000080500001082000010f40001e007800d3
:10321c000080fa00000006000000fa00ecff070036
:10322c0001082000008050000080fa000000060019
:10323c000000fa002002a9000111800090ff2f006d
:10324c00008060000011880020a2a9002062a80064
:10325c00500520004011880023a2a90023e2a900f8
:10326c000188a9002188a80011118000f0f32f001b
:10327c0000806000101188000168a9002168a80076
:10328c0021e2a8002342a8000080fa0000000600fa
:10329c000600fa000e81e80000097800640047007f
:1032ac00010878000040eb00004f78000040eb0074
:1032bc00004f780011003700000000001111800051
:1032cc0000202000008060000000e000fbff3a00be
:1032dc000e80e80010007800104078000080fb00a1
:1032ec00201188000e80e800100078008000e800b3
:1032fc000e80e800010878001e4fe8001e80fb00dd
:10330c00e400470091007800810f5000eaff35007f
:10331c000080fa00000006000000fa000e2eef00fc
:10332c001e2eef002e2eef003e2eef004e2eef0045
:10333c005e2eef006e2eef00214ea90060cea9008c
:10334c0060eea90011cea90011eea90020eea90093
:10335c0020cea900103a8000000178000260a10084
:10336c00600420007105200023742000804978003f
:10337c0081497800824978002136800000f82f00be
:10338c00008060008001b30020368800113480007a
:10339c0000fc2f00008060000000a00010348800aa
:1033ac00103a8000000178000260a0006004200048
:1033bc007105200023742000804978008149780031
:1033cc00824978000080fa00000006000000fa0034
:1033dc00f0032000303a8800213a8000f0f32f00ef
:1033ec0000806000203a8800213a800000fe2f0007
:1033fc00008060000000a000203a8800120020002d
:10340c0080072000a1092000337420008049780037
:10341c008149780082497800103a800000017800d8
:10342c000200a0006004200071052000237420001d
:10343c0080497800814978008249780000000000ba
:10344c00113a8000000027008080600000002100fd
:10345c00808f5000faff3a0000000000113a800003
:10346c0000022000008060000000e000fbff320042
:08347c000080fa0000000600c8
:020000040000fa
:103484000010000014000000800000001410000070
:1034940006000000800000002c110000260000003f
:1034a40080000000201000000400000082000000e2
:1034b4000000c80042000000521100000a00000091
:1034c40080000000281000000200000080000000be
:1034d4002c10000080000000800000001a10000082
:1034e4000600000080000000ac1000008000000016
:1034f4008000000024100000040000008000000090
:103504002a10000002000000800000005c1100008e
:0c35140004000000800000000000000027
:020000040000fa
:10352000f03fb1000180b10006003500ee03090054
:1035300000000000403fb1000180b100fbff3d00f2
:103540001000b000203fb0000200350000800900ec
:0835500000000000000006006d
:020000040000fa
:02000004000af0
:04afe000cfff00009f
:020000040000fa
:02000004000af0
:04afe400f7ff000073
:020000040000fa
:02000004000af0
:04afe8007fff0000e7
:020000040000fa
:02000004000af0
:04afec005fff000003
:020000040000fa
:02000004000af0
:04aff00038ff000026
:020000040000fa
:02000004000af0
:04aff400ffffff005c
:00000001FF
